{"contracts/MedXProductRegistry.sol":{"MedXProductRegistry":{"abi":[{"anonymous":false,"inputs":[{"indexed":true,"internalType":"string","name":"productId","type":"string"},{"indexed":false,"internalType":"string","name":"name","type":"string"},{"indexed":false,"internalType":"string","name":"sku","type":"string"},{"indexed":true,"internalType":"address","name":"addedBy","type":"address"},{"indexed":false,"internalType":"string","name":"addedByRole","type":"string"},{"indexed":false,"internalType":"uint256","name":"timestamp","type":"uint256"}],"name":"ProductRegistered","type":"event"},{"anonymous":false,"inputs":[{"indexed":true,"internalType":"string","name":"shipmentId","type":"string"},{"indexed":false,"internalType":"string","name":"fromEntity","type":"string"},{"indexed":false,"internalType":"string","name":"toEntity","type":"string"},{"indexed":true,"internalType":"address","name":"actor","type":"address"},{"indexed":false,"internalType":"string","name":"actorRole","type":"string"},{"indexed":false,"internalType":"uint256","name":"timestamp","type":"uint256"}],"name":"ShipmentDispatched","type":"event"},{"anonymous":false,"inputs":[{"indexed":true,"internalType":"string","name":"shipmentId","type":"string"},{"indexed":false,"internalType":"string","name":"fromEntity","type":"string"},{"indexed":false,"internalType":"string","name":"toEntity","type":"string"},{"indexed":true,"internalType":"address","name":"actor","type":"address"},{"indexed":false,"internalType":"string","name":"actorRole","type":"string"},{"indexed":false,"internalType":"uint256","name":"timestamp","type":"uint256"}],"name":"ShipmentReceived","type":"event"},{"inputs":[{"internalType":"string","name":"productId","type":"string"}],"name":"getProduct","outputs":[{"components":[{"internalType":"string","name":"productId","type":"string"},{"internalType":"string","name":"name","type":"string"},{"internalType":"string","name":"sku","type":"string"},{"internalType":"string","name":"batchNumber","type":"string"},{"internalType":"string","name":"category","type":"string"},{"internalType":"uint256","name":"quantity","type":"uint256"},{"internalType":"uint256","name":"expiryTimestamp","type":"uint256"},{"internalType":"address","name":"addedBy","type":"address"},{"internalType":"string","name":"addedByRole","type":"string"},{"internalType":"uint256","name":"timestamp","type":"uint256"}],"internalType":"struct MedXProductRegistry.Product","name":"","type":"tuple"}],"stateMutability":"view","type":"function"},{"inputs":[],"name":"getProductCount","outputs":[{"internalType":"uint256","name":"","type":"uint256"}],"stateMutability":"view","type":"function"},{"inputs":[{"internalType":"string","name":"shipmentId","type":"string"}],"name":"getShipmentEvents","outputs":[{"components":[{"internalType":"string","name":"eventType","type":"string"},{"internalType":"string","name":"shipmentId","type":"string"},{"internalType":"string","name":"fromEntity","type":"string"},{"internalType":"string","name":"toEntity","type":"string"},{"internalType":"address","name":"actor","type":"address"},{"internalType":"string","name":"actorRole","type":"string"},{"internalType":"uint256","name":"timestamp","type":"uint256"}],"internalType":"struct MedXProductRegistry.ShipmentEvent[]","name":"","type":"tuple[]"}],"stateMutability":"view","type":"function"},{"inputs":[{"internalType":"string","name":"productId","type":"string"}],"name":"isRegistered","outputs":[{"internalType":"bool","name":"","type":"bool"}],"stateMutability":"view","type":"function"},{"inputs":[{"internalType":"string","name":"shipmentId","type":"string"},{"internalType":"string","name":"fromEntity","type":"string"},{"internalType":"string","name":"toEntity","type":"string"},{"internalType":"string","name":"actorRole","type":"string"}],"name":"recordDispatch","outputs":[],"stateMutability":"nonpayable","type":"function"},{"inputs":[{"internalType":"string","name":"shipmentId","type":"string"},{"internalType":"string","name":"fromEntity","type":"string"},{"internalType":"string","name":"toEntity","type":"string"},{"internalType":"string","name":"actorRole","type":"string"}],"name":"recordReceive","outputs":[],"stateMutability":"nonpayable","type":"function"},{"inputs":[{"internalType":"string","name":"productId","type":"string"},{"internalType":"string","name":"name","type":"string"},{"internalType":"string","name":"sku","type":"string"},{"internalType":"string","name":"batchNumber","type":"string"},{"internalType":"string","name":"category","type":"string"},{"internalType":"uint256","name":"quantity","type":"uint256"},{"internalType":"uint256","name":"expiryTimestamp","type":"uint256"},{"internalType":"string","name":"role","type":"string"}],"name":"registerProduct","outputs":[],"stateMutability":"nonpayable","type":"function"}],"evm":{"bytecode":{"linkReferences":{},"object":"608080604052346100165761174d908161001c8239f35b600080fdfe608080604052600436101561001357600080fd5b60003560e01c90816332f197a514610dc6575080634a348da914610da857806368111cce14610b4a5780638621f22814610aba578063c822d7f014610a64578063d4e8e2151461098c5763e6572d621461006c57600080fd5b3461098757610100366003190112610987576004356001600160401b0381116109875761009d903690600401610fa9565b906024356001600160401b038111610987576100bd903690600401610fa9565b926044356001600160401b038111610987576100dd903690600401610fa9565b9290916064356001600160401b038111610987576100ff903690600401610fa9565b9190956084356001600160401b03811161098757610121903690600401610fa9565b939060e4356001600160401b03811161098757610142903690600401610fa9565b95909960ff6040518787823760208189810160018152030190205416610936576040519361016f856110b1565b61017a368888611109565b8552610187368e8b611109565b6020860152610197368c8c611109565b604086015236906101a792611109565b606084015236906101b792611109565b608082015260a43560a082015260c43560c08201523360e08201526101dd36858a611109565b610100820152426101208201526040518383823780848101600081520360200190209080518051906001600160401b03821161061e57819061022982610223875461114f565b87611189565b602090601f83116001146108ca576000926108bf575b50508160011b916000199060031b1c19161782555b60208101518051906001600160401b03821161061e5781906102868261027d600188015461114f565b60018801611189565b602090601f831160011461084d57600092610842575b50508160011b916000199060031b1c19161760018301555b60408101518051906001600160401b03821161061e5781906102e6826102dd600288015461114f565b60028801611189565b602090601f83116001146107d0576000926107c5575b50508160011b916000199060031b1c19161760028301555b60608101518051906001600160401b03821161061e5781906103468261033d600388015461114f565b60038801611189565b602090601f831160011461075357600092610748575b50508160011b916000199060031b1c19161760038301555b60808101518051906001600160401b03821161061e5781906103a68261039d600488015461114f565b60048801611189565b602090601f83116001146106d6576000926106cb575b50508160011b916000199060031b1c19161760048301555b60a0810151600583015560c081015160068301556007820160018060a01b0360e0830151166bffffffffffffffffffffffff60a01b8254161790556101008101518051906001600160401b03821161061e5761044082610437600887015461114f565b60088701611189565b602090601f8311600114610655579180600994926101209460009261064a575b50508160011b916000199060031b1c19161760088501555b0151910155604051828282376020818481016001815203019020600160ff19825416179055600254600160401b81101561061e5760018101806002558110156106345760026000527f405787fa12a823e0f2b7631cc41b3ba8828b3321ca811111fa75cd3aa3bb5ace016001600160401b03831161061e57610504836104fe835461114f565b83611189565b6000601f841160011461058d579183917f99b4a267c231524c781dcd6d8a4e87d344813cdc5b201b6479e28e9b223e0fee9897969461057d9694600091610582575b508360011b906000198560031b1c19161790555b81604051928392833781016000815203902096604051958695339a4295886111fe565b0390a3005b905082013538610546565b601f198416908260005260206000209160005b8181106106065750918593917f99b4a267c231524c781dcd6d8a4e87d344813cdc5b201b6479e28e9b223e0fee9a99989661057d989694106105ec575b5050600183811b01905561055a565b830135600019600386901b60f8161c1916905538806105dd565b919260206001819286890135815501940192016105a0565b634e487b7160e01b600052604160045260246000fd5b634e487b7160e01b600052603260045260246000fd5b015190503880610460565b906008850160005260206000209160005b601f19851681106106b3575092600994926001926101209583601f1981161061069a575b505050811b016008850155610478565b015160001960f88460031b161c1916905538808061068a565b91926020600181928685015181550194019201610666565b0151905038806103bc565b9250600485016000526020600020906000935b601f198416851061072d576001945083601f19811610610714575b505050811b0160048301556103d4565b015160001960f88460031b161c19169055388080610704565b818101518355602094850194600190930192909101906106e9565b01519050388061035c565b9250600385016000526020600020906000935b601f19841685106107aa576001945083601f19811610610791575b505050811b016003830155610374565b015160001960f88460031b161c19169055388080610781565b81810151835560209485019460019093019290910190610766565b0151905038806102fc565b9250600285016000526020600020906000935b601f1984168510610827576001945083601f1981161061080e575b505050811b016002830155610314565b015160001960f88460031b161c191690553880806107fe565b818101518355602094850194600190930192909101906107e3565b01519050388061029c565b9250600185016000526020600020906000935b601f19841685106108a4576001945083601f1981161061088b575b505050811b0160018301556102b4565b015160001960f88460031b161c1916905538808061087b565b81810151835560209485019460019093019290910190610860565b01519050388061023f565b9250846000526020600020906000935b601f198416851061091b576001945083601f19811610610902575b505050811b018255610254565b015160001960f88460031b161c191690553880806108f5565b818101518355602094850194600190930192909101906108da565b60405162461bcd60e51b815260206004820152602360248201527f50726f6475637420616c72656164792072656769737465726564206f6e2d636860448201526230b4b760e91b6064820152608490fd5b600080fd5b346109875761057d7fc801c4fa827eb2f345cb2650a992d8537e995883ae446c997ee43383120e47016109be36611016565b919590979661055a60409a959a96949651838382376020818581016003815203019020604051906109ee82611096565b6040516109fa816110cd565b600a815269191a5cdc185d18da195960b21b60208201528252610a1e368686611109565b6020830152610a2e368e89611109565b6040830152610a3e368b8b611109565b6060830152336080830152610a5436878e611109565b60a08301524260c0830152611241565b34610987576020366003190112610987576004356001600160401b0381116109875760ff6020610a9981933690600401610fa9565b91908260405193849283378101600181520301902054166040519015158152f35b346109875761057d7f555b672e7a6feb58c2cfcf23b0b7437b47b2c43ee27160179b601a5278a8f65a610aec36611016565b919590979661055a60409a959a9694965183838237602081858101600381520301902060405190610b1c82611096565b604051610b28816110cd565b60088152671c9958d95a5d995960c21b60208201528252610a1e368686611109565b34610987576020366003190112610987576004356001600160401b03811161098757610b7a903690600401610fa9565b906000610120604051610b8c816110b1565b606081526060602082015260606040820152606080820152606060808201528260a08201528260c08201528260e08201526060610100820152015260ff604051838382376020818581016001815203019020541615610d6f5760209082604051938492833781016000815203019020600960405191610c0a836110b1565b610c1381611671565b8352610c2160018201611671565b6020840152610c3260028201611671565b6040840152610c4360038201611671565b6060840152610c5460048201611671565b6080840152600581015460a0840152600681015460c084015260078101546001600160a01b031660e0840152610c8c60088201611671565b6101008401520154610120820152604051809160208252610120610d62610d25610d0f610cf9610ce3610ccd875161014060208b01526101608a0190610fd6565b6020880151898203601f190160408b0152610fd6565b6040870151888203601f190160608a0152610fd6565b6060860151878203601f19016080890152610fd6565b6080850151868203601f190160a0880152610fd6565b60a084015160c086015260c084015160e086015260018060a01b0360e085015116610100860152610100840151601f198683030184870152610fd6565b9101516101408301520390f35b60405162461bcd60e51b8152602060048201526011602482015270141c9bd91d58dd081b9bdd08199bdd5b99607a1b6044820152606490fd5b34610987576000366003190112610987576020600254604051908152f35b3461098757602080600319360112610987576001600160401b0360043581811161098757610df8903690600401610fa9565b8091853783019282816003958681520301902090815490811161061e579160405192600594610e2b8383881b01866110e8565b81855260009384528284208386019491855b848410610f1d575050505050604051928184019082855251809152604081818601961b85010192916000955b828710610e765785850386f35b909192938280600192603f19898203018552875190610f03610edf610ecc610eba610eaa865160e0875260e0870190610fd6565b8787015186820389880152610fd6565b60408601518582036040870152610fd6565b6060808601519085830390860152610fd6565b6080878060a01b0381860151169084015260a0808501519084830390850152610fd6565b9160c0809101519101529601920196019592919092610e69565b60078660019260409a989a51610f3281611096565b610f3b87611671565b8152610f48858801611671565b83820152610f5860028801611671565b6040820152610f68868801611671565b6060820152848060a01b036004880154166080820152610f898d8801611671565b60a0820152600687015460c0820152815201930193019291969496610e3d565b9181601f84011215610987578235916001600160401b038311610987576020838186019501011161098757565b919082519283825260005b848110611002575050826000602080949584010152601f8019910116010190565b602081830181015184830182015201610fe1565b6080600319820112610987576001600160401b0390600435828111610987578161104291600401610fa9565b93909392602435818111610987578361105d91600401610fa9565b93909392604435838111610987578261107891600401610fa9565b939093926064359182116109875761109291600401610fa9565b9091565b60e081019081106001600160401b0382111761061e57604052565b61014081019081106001600160401b0382111761061e57604052565b604081019081106001600160401b0382111761061e57604052565b90601f801991011681019081106001600160401b0382111761061e57604052565b9291926001600160401b03821161061e5760405191611132601f8201601f1916602001846110e8565b829481845281830111610987578281602093846000960137010152565b90600182811c9216801561117f575b602083101461116957565b634e487b7160e01b600052602260045260246000fd5b91607f169161115e565b90601f811161119757505050565b600091825260208220906020601f850160051c830194106111d3575b601f0160051c01915b8281106111c857505050565b8181556001016111bc565b90925082906111b3565b908060209392818452848401376000828201840152601f01601f1916010190565b979695919261123c9461122061122e936060989660808d5260808d01916111dd565b918a830360208c01526111dd565b9187830360408901526111dd565b930152565b805491600160401b83101561061e5760019283810180845581101561063457600092835260209060078285209102019382519081516001600160401b03928382116114a157819061129c826112968b5461114f565b8b611189565b8590601f8311600114611612578892611607575b5050600019600383901b1c191690821b1786555b8086018385015180519084821161151f5781906112eb826112e5865461114f565b86611189565b8690601f83116001146115a857899261159d575b5050600019600383901b1c191690831b1790555b60028601604085015180519084821161151f578190611336826112e5865461114f565b8690601f831160011461153e578992611533575b5050600019600383901b1c191690831b1790555b60038601606085015180519084821161151f578190611381826112e5865461114f565b8690601f83116001146114c05789926114b5575b5050600019600383901b1c191690831b1790555b6004860160018060a01b036080860151166bffffffffffffffffffffffff60a01b825416179055600586019260a085015180519384116114a1576113f184610223875461114f565b81601f85116001146114355750928092819260c09796956006999461142a575b50501b916000199060031b1c19161790555b0151910155565b015192503880611411565b858852808820969795969395601f198616915b82821061148a575050916006979593918560c098969410611471575b505050811b019055611423565b015160001960f88460031b161c19169055388080611464565b808886978294978701518155019601940190611448565b634e487b7160e01b87526041600452602487fd5b015190503880611395565b848a52878a208694509190601f1984168b5b8a82821061150957505084116114f0575b505050811b0190556113a9565b015160001960f88460031b161c191690553880806114e3565b83850151865589979095019493840193016114d2565b634e487b7160e01b88526041600452602488fd5b01519050388061134a565b848a52878a208694509190601f1984168b5b8a828210611587575050841161156e575b505050811b01905561135e565b015160001960f88460031b161c19169055388080611561565b8385015186558997909501949384019301611550565b0151905038806112ff565b848a52878a208694509190601f1984168b5b8a8282106115f157505084116115d8575b505050811b019055611313565b015160001960f88460031b161c191690553880806115cb565b83850151865589979095019493840193016115ba565b0151905038806112b0565b8989528689208594509190601f1984168a5b8982821061165b5750508411611642575b505050811b0186556112c4565b015160001960f88460031b161c19169055388080611635565b8385015186558897909501949384019301611624565b90604051918260008254926116858461114f565b9081845260019485811690816000146116f457506001146116b1575b50506116af925003836110e8565b565b9093915060005260209081600020936000915b8183106116dc5750506116af935082010138806116a1565b855488840185015294850194879450918301916116c4565b9150506116af94506020925060ff191682840152151560051b82010138806116a156fea2646970667358221220054de5abcb2cf846e8817bb1202589dcadc7b3673b3ee00ca7783b4e62b5644664736f6c63430008140033","opcodes":"PUSH1 0x80 DUP1 PUSH1 0x40 MSTORE CALLVALUE PUSH2 0x16 JUMPI PUSH2 0x174D SWAP1 DUP2 PUSH2 0x1C DUP3 CODECOPY RETURN JUMPDEST PUSH1 0x0 DUP1 REVERT INVALID PUSH1 0x80 DUP1 PUSH1 0x40 MSTORE PUSH1 0x4 CALLDATASIZE LT ISZERO PUSH2 0x13 JUMPI PUSH1 0x0 DUP1 REVERT JUMPDEST PUSH1 0x0 CALLDATALOAD PUSH1 0xE0 SHR SWAP1 DUP2 PUSH4 0x32F197A5 EQ PUSH2 0xDC6 JUMPI POP DUP1 PUSH4 0x4A348DA9 EQ PUSH2 0xDA8 JUMPI DUP1 PUSH4 0x68111CCE EQ PUSH2 0xB4A JUMPI DUP1 PUSH4 0x8621F228 EQ PUSH2 0xABA JUMPI DUP1 PUSH4 0xC822D7F0 EQ PUSH2 0xA64 JUMPI DUP1 PUSH4 0xD4E8E215 EQ PUSH2 0x98C JUMPI PUSH4 0xE6572D62 EQ PUSH2 0x6C JUMPI PUSH1 0x0 DUP1 REVERT JUMPDEST CALLVALUE PUSH2 0x987 JUMPI PUSH2 0x100 CALLDATASIZE PUSH1 0x3 NOT ADD SLT PUSH2 0x987 JUMPI PUSH1 0x4 CALLDATALOAD PUSH1 0x1 PUSH1 0x1 PUSH1 0x40 SHL SUB DUP2 GT PUSH2 0x987 JUMPI PUSH2 0x9D SWAP1 CALLDATASIZE SWAP1 PUSH1 0x4 ADD PUSH2 0xFA9 JUMP JUMPDEST SWAP1 PUSH1 0x24 CALLDATALOAD PUSH1 0x1 PUSH1 0x1 PUSH1 0x40 SHL SUB DUP2 GT PUSH2 0x987 JUMPI PUSH2 0xBD SWAP1 CALLDATASIZE SWAP1 PUSH1 0x4 ADD PUSH2 0xFA9 JUMP JUMPDEST SWAP3 PUSH1 0x44 CALLDATALOAD PUSH1 0x1 PUSH1 0x1 PUSH1 0x40 SHL SUB DUP2 GT PUSH2 0x987 JUMPI PUSH2 0xDD SWAP1 CALLDATASIZE SWAP1 PUSH1 0x4 ADD PUSH2 0xFA9 JUMP JUMPDEST SWAP3 SWAP1 SWAP2 PUSH1 0x64 CALLDATALOAD PUSH1 0x1 PUSH1 0x1 PUSH1 0x40 SHL SUB DUP2 GT PUSH2 0x987 JUMPI PUSH2 0xFF SWAP1 CALLDATASIZE SWAP1 PUSH1 0x4 ADD PUSH2 0xFA9 JUMP JUMPDEST SWAP2 SWAP1 SWAP6 PUSH1 0x84 CALLDATALOAD PUSH1 0x1 PUSH1 0x1 PUSH1 0x40 SHL SUB DUP2 GT PUSH2 0x987 JUMPI PUSH2 0x121 SWAP1 CALLDATASIZE SWAP1 PUSH1 0x4 ADD PUSH2 0xFA9 JUMP JUMPDEST SWAP4 SWAP1 PUSH1 0xE4 CALLDATALOAD PUSH1 0x1 PUSH1 0x1 PUSH1 0x40 SHL SUB DUP2 GT PUSH2 0x987 JUMPI PUSH2 0x142 SWAP1 CALLDATASIZE SWAP1 PUSH1 0x4 ADD PUSH2 0xFA9 JUMP JUMPDEST SWAP6 SWAP1 SWAP10 PUSH1 0xFF PUSH1 0x40 MLOAD DUP8 DUP8 DUP3 CALLDATACOPY PUSH1 0x20 DUP2 DUP10 DUP2 ADD PUSH1 0x1 DUP2 MSTORE SUB ADD SWAP1 KECCAK256 SLOAD AND PUSH2 0x936 JUMPI PUSH1 0x40 MLOAD SWAP4 PUSH2 0x16F DUP6 PUSH2 0x10B1 JUMP JUMPDEST PUSH2 0x17A CALLDATASIZE DUP9 DUP9 PUSH2 0x1109 JUMP JUMPDEST DUP6 MSTORE PUSH2 0x187 CALLDATASIZE DUP15 DUP12 PUSH2 0x1109 JUMP JUMPDEST PUSH1 0x20 DUP7 ADD MSTORE PUSH2 0x197 CALLDATASIZE DUP13 DUP13 PUSH2 0x1109 JUMP JUMPDEST PUSH1 0x40 DUP7 ADD MSTORE CALLDATASIZE SWAP1 PUSH2 0x1A7 SWAP3 PUSH2 0x1109 JUMP JUMPDEST PUSH1 0x60 DUP5 ADD MSTORE CALLDATASIZE SWAP1 PUSH2 0x1B7 SWAP3 PUSH2 0x1109 JUMP JUMPDEST PUSH1 0x80 DUP3 ADD MSTORE PUSH1 0xA4 CALLDATALOAD PUSH1 0xA0 DUP3 ADD MSTORE PUSH1 0xC4 CALLDATALOAD PUSH1 0xC0 DUP3 ADD MSTORE CALLER PUSH1 0xE0 DUP3 ADD MSTORE PUSH2 0x1DD CALLDATASIZE DUP6 DUP11 PUSH2 0x1109 JUMP JUMPDEST PUSH2 0x100 DUP3 ADD MSTORE TIMESTAMP PUSH2 0x120 DUP3 ADD MSTORE PUSH1 0x40 MLOAD DUP4 DUP4 DUP3 CALLDATACOPY DUP1 DUP5 DUP2 ADD PUSH1 0x0 DUP2 MSTORE SUB PUSH1 0x20 ADD SWAP1 KECCAK256 SWAP1 DUP1 MLOAD DUP1 MLOAD SWAP1 PUSH1 0x1 PUSH1 0x1 PUSH1 0x40 SHL SUB DUP3 GT PUSH2 0x61E JUMPI DUP2 SWAP1 PUSH2 0x229 DUP3 PUSH2 0x223 DUP8 SLOAD PUSH2 0x114F JUMP JUMPDEST DUP8 PUSH2 0x1189 JUMP JUMPDEST PUSH1 0x20 SWAP1 PUSH1 0x1F DUP4 GT PUSH1 0x1 EQ PUSH2 0x8CA JUMPI PUSH1 0x0 SWAP3 PUSH2 0x8BF JUMPI JUMPDEST POP POP DUP2 PUSH1 0x1 SHL SWAP2 PUSH1 0x0 NOT SWAP1 PUSH1 0x3 SHL SHR NOT AND OR DUP3 SSTORE JUMPDEST PUSH1 0x20 DUP2 ADD MLOAD DUP1 MLOAD SWAP1 PUSH1 0x1 PUSH1 0x1 PUSH1 0x40 SHL SUB DUP3 GT PUSH2 0x61E JUMPI DUP2 SWAP1 PUSH2 0x286 DUP3 PUSH2 0x27D PUSH1 0x1 DUP9 ADD SLOAD PUSH2 0x114F JUMP JUMPDEST PUSH1 0x1 DUP9 ADD PUSH2 0x1189 JUMP JUMPDEST PUSH1 0x20 SWAP1 PUSH1 0x1F DUP4 GT PUSH1 0x1 EQ PUSH2 0x84D JUMPI PUSH1 0x0 SWAP3 PUSH2 0x842 JUMPI JUMPDEST POP POP DUP2 PUSH1 0x1 SHL SWAP2 PUSH1 0x0 NOT SWAP1 PUSH1 0x3 SHL SHR NOT AND OR PUSH1 0x1 DUP4 ADD SSTORE JUMPDEST PUSH1 0x40 DUP2 ADD MLOAD DUP1 MLOAD SWAP1 PUSH1 0x1 PUSH1 0x1 PUSH1 0x40 SHL SUB DUP3 GT PUSH2 0x61E JUMPI DUP2 SWAP1 PUSH2 0x2E6 DUP3 PUSH2 0x2DD PUSH1 0x2 DUP9 ADD SLOAD PUSH2 0x114F JUMP JUMPDEST PUSH1 0x2 DUP9 ADD PUSH2 0x1189 JUMP JUMPDEST PUSH1 0x20 SWAP1 PUSH1 0x1F DUP4 GT PUSH1 0x1 EQ PUSH2 0x7D0 JUMPI PUSH1 0x0 SWAP3 PUSH2 0x7C5 JUMPI JUMPDEST POP POP DUP2 PUSH1 0x1 SHL SWAP2 PUSH1 0x0 NOT SWAP1 PUSH1 0x3 SHL SHR NOT AND OR PUSH1 0x2 DUP4 ADD SSTORE JUMPDEST PUSH1 0x60 DUP2 ADD MLOAD DUP1 MLOAD SWAP1 PUSH1 0x1 PUSH1 0x1 PUSH1 0x40 SHL SUB DUP3 GT PUSH2 0x61E JUMPI DUP2 SWAP1 PUSH2 0x346 DUP3 PUSH2 0x33D PUSH1 0x3 DUP9 ADD SLOAD PUSH2 0x114F JUMP JUMPDEST PUSH1 0x3 DUP9 ADD PUSH2 0x1189 JUMP JUMPDEST PUSH1 0x20 SWAP1 PUSH1 0x1F DUP4 GT PUSH1 0x1 EQ PUSH2 0x753 JUMPI PUSH1 0x0 SWAP3 PUSH2 0x748 JUMPI JUMPDEST POP POP DUP2 PUSH1 0x1 SHL SWAP2 PUSH1 0x0 NOT SWAP1 PUSH1 0x3 SHL SHR NOT AND OR PUSH1 0x3 DUP4 ADD SSTORE JUMPDEST PUSH1 0x80 DUP2 ADD MLOAD DUP1 MLOAD SWAP1 PUSH1 0x1 PUSH1 0x1 PUSH1 0x40 SHL SUB DUP3 GT PUSH2 0x61E JUMPI DUP2 SWAP1 PUSH2 0x3A6 DUP3 PUSH2 0x39D PUSH1 0x4 DUP9 ADD SLOAD PUSH2 0x114F JUMP JUMPDEST PUSH1 0x4 DUP9 ADD PUSH2 0x1189 JUMP JUMPDEST PUSH1 0x20 SWAP1 PUSH1 0x1F DUP4 GT PUSH1 0x1 EQ PUSH2 0x6D6 JUMPI PUSH1 0x0 SWAP3 PUSH2 0x6CB JUMPI JUMPDEST POP POP DUP2 PUSH1 0x1 SHL SWAP2 PUSH1 0x0 NOT SWAP1 PUSH1 0x3 SHL SHR NOT AND OR PUSH1 0x4 DUP4 ADD SSTORE JUMPDEST PUSH1 0xA0 DUP2 ADD MLOAD PUSH1 0x5 DUP4 ADD SSTORE PUSH1 0xC0 DUP2 ADD MLOAD PUSH1 0x6 DUP4 ADD SSTORE PUSH1 0x7 DUP3 ADD PUSH1 0x1 DUP1 PUSH1 0xA0 SHL SUB PUSH1 0xE0 DUP4 ADD MLOAD AND PUSH12 0xFFFFFFFFFFFFFFFFFFFFFFFF PUSH1 0xA0 SHL DUP3 SLOAD AND OR SWAP1 SSTORE PUSH2 0x100 DUP2 ADD MLOAD DUP1 MLOAD SWAP1 PUSH1 0x1 PUSH1 0x1 PUSH1 0x40 SHL SUB DUP3 GT PUSH2 0x61E JUMPI PUSH2 0x440 DUP3 PUSH2 0x437 PUSH1 0x8 DUP8 ADD SLOAD PUSH2 0x114F JUMP JUMPDEST PUSH1 0x8 DUP8 ADD PUSH2 0x1189 JUMP JUMPDEST PUSH1 0x20 SWAP1 PUSH1 0x1F DUP4 GT PUSH1 0x1 EQ PUSH2 0x655 JUMPI SWAP2 DUP1 PUSH1 0x9 SWAP5 SWAP3 PUSH2 0x120 SWAP5 PUSH1 0x0 SWAP3 PUSH2 0x64A JUMPI JUMPDEST POP POP DUP2 PUSH1 0x1 SHL SWAP2 PUSH1 0x0 NOT SWAP1 PUSH1 0x3 SHL SHR NOT AND OR PUSH1 0x8 DUP6 ADD SSTORE JUMPDEST ADD MLOAD SWAP2 ADD SSTORE PUSH1 0x40 MLOAD DUP3 DUP3 DUP3 CALLDATACOPY PUSH1 0x20 DUP2 DUP5 DUP2 ADD PUSH1 0x1 DUP2 MSTORE SUB ADD SWAP1 KECCAK256 PUSH1 0x1 PUSH1 0xFF NOT DUP3 SLOAD AND OR SWAP1 SSTORE PUSH1 0x2 SLOAD PUSH1 0x1 PUSH1 0x40 SHL DUP2 LT ISZERO PUSH2 0x61E JUMPI PUSH1 0x1 DUP2 ADD DUP1 PUSH1 0x2 SSTORE DUP2 LT ISZERO PUSH2 0x634 JUMPI PUSH1 0x2 PUSH1 0x0 MSTORE PUSH32 0x405787FA12A823E0F2B7631CC41B3BA8828B3321CA811111FA75CD3AA3BB5ACE ADD PUSH1 0x1 PUSH1 0x1 PUSH1 0x40 SHL SUB DUP4 GT PUSH2 0x61E JUMPI PUSH2 0x504 DUP4 PUSH2 0x4FE DUP4 SLOAD PUSH2 0x114F JUMP JUMPDEST DUP4 PUSH2 0x1189 JUMP JUMPDEST PUSH1 0x0 PUSH1 0x1F DUP5 GT PUSH1 0x1 EQ PUSH2 0x58D JUMPI SWAP2 DUP4 SWAP2 PUSH32 0x99B4A267C231524C781DCD6D8A4E87D344813CDC5B201B6479E28E9B223E0FEE SWAP9 SWAP8 SWAP7 SWAP5 PUSH2 0x57D SWAP7 SWAP5 PUSH1 0x0 SWAP2 PUSH2 0x582 JUMPI JUMPDEST POP DUP4 PUSH1 0x1 SHL SWAP1 PUSH1 0x0 NOT DUP6 PUSH1 0x3 SHL SHR NOT AND OR SWAP1 SSTORE JUMPDEST DUP2 PUSH1 0x40 MLOAD SWAP3 DUP4 SWAP3 DUP4 CALLDATACOPY DUP2 ADD PUSH1 0x0 DUP2 MSTORE SUB SWAP1 KECCAK256 SWAP7 PUSH1 0x40 MLOAD SWAP6 DUP7 SWAP6 CALLER SWAP11 TIMESTAMP SWAP6 DUP9 PUSH2 0x11FE JUMP JUMPDEST SUB SWAP1 LOG3 STOP JUMPDEST SWAP1 POP DUP3 ADD CALLDATALOAD CODESIZE PUSH2 0x546 JUMP JUMPDEST PUSH1 0x1F NOT DUP5 AND SWAP1 DUP3 PUSH1 0x0 MSTORE PUSH1 0x20 PUSH1 0x0 KECCAK256 SWAP2 PUSH1 0x0 JUMPDEST DUP2 DUP2 LT PUSH2 0x606 JUMPI POP SWAP2 DUP6 SWAP4 SWAP2 PUSH32 0x99B4A267C231524C781DCD6D8A4E87D344813CDC5B201B6479E28E9B223E0FEE SWAP11 SWAP10 SWAP9 SWAP7 PUSH2 0x57D SWAP9 SWAP7 SWAP5 LT PUSH2 0x5EC JUMPI JUMPDEST POP POP PUSH1 0x1 DUP4 DUP2 SHL ADD SWAP1 SSTORE PUSH2 0x55A JUMP JUMPDEST DUP4 ADD CALLDATALOAD PUSH1 0x0 NOT PUSH1 0x3 DUP7 SWAP1 SHL PUSH1 0xF8 AND SHR NOT AND SWAP1 SSTORE CODESIZE DUP1 PUSH2 0x5DD JUMP JUMPDEST SWAP2 SWAP3 PUSH1 0x20 PUSH1 0x1 DUP2 SWAP3 DUP7 DUP10 ADD CALLDATALOAD DUP2 SSTORE ADD SWAP5 ADD SWAP3 ADD PUSH2 0x5A0 JUMP JUMPDEST PUSH4 0x4E487B71 PUSH1 0xE0 SHL PUSH1 0x0 MSTORE PUSH1 0x41 PUSH1 0x4 MSTORE PUSH1 0x24 PUSH1 0x0 REVERT JUMPDEST PUSH4 0x4E487B71 PUSH1 0xE0 SHL PUSH1 0x0 MSTORE PUSH1 0x32 PUSH1 0x4 MSTORE PUSH1 0x24 PUSH1 0x0 REVERT JUMPDEST ADD MLOAD SWAP1 POP CODESIZE DUP1 PUSH2 0x460 JUMP JUMPDEST SWAP1 PUSH1 0x8 DUP6 ADD PUSH1 0x0 MSTORE PUSH1 0x20 PUSH1 0x0 KECCAK256 SWAP2 PUSH1 0x0 JUMPDEST PUSH1 0x1F NOT DUP6 AND DUP2 LT PUSH2 0x6B3 JUMPI POP SWAP3 PUSH1 0x9 SWAP5 SWAP3 PUSH1 0x1 SWAP3 PUSH2 0x120 SWAP6 DUP4 PUSH1 0x1F NOT DUP2 AND LT PUSH2 0x69A JUMPI JUMPDEST POP POP POP DUP2 SHL ADD PUSH1 0x8 DUP6 ADD SSTORE PUSH2 0x478 JUMP JUMPDEST ADD MLOAD PUSH1 0x0 NOT PUSH1 0xF8 DUP5 PUSH1 0x3 SHL AND SHR NOT AND SWAP1 SSTORE CODESIZE DUP1 DUP1 PUSH2 0x68A JUMP JUMPDEST SWAP2 SWAP3 PUSH1 0x20 PUSH1 0x1 DUP2 SWAP3 DUP7 DUP6 ADD MLOAD DUP2 SSTORE ADD SWAP5 ADD SWAP3 ADD PUSH2 0x666 JUMP JUMPDEST ADD MLOAD SWAP1 POP CODESIZE DUP1 PUSH2 0x3BC JUMP JUMPDEST SWAP3 POP PUSH1 0x4 DUP6 ADD PUSH1 0x0 MSTORE PUSH1 0x20 PUSH1 0x0 KECCAK256 SWAP1 PUSH1 0x0 SWAP4 JUMPDEST PUSH1 0x1F NOT DUP5 AND DUP6 LT PUSH2 0x72D JUMPI PUSH1 0x1 SWAP5 POP DUP4 PUSH1 0x1F NOT DUP2 AND LT PUSH2 0x714 JUMPI JUMPDEST POP POP POP DUP2 SHL ADD PUSH1 0x4 DUP4 ADD SSTORE PUSH2 0x3D4 JUMP JUMPDEST ADD MLOAD PUSH1 0x0 NOT PUSH1 0xF8 DUP5 PUSH1 0x3 SHL AND SHR NOT AND SWAP1 SSTORE CODESIZE DUP1 DUP1 PUSH2 0x704 JUMP JUMPDEST DUP2 DUP2 ADD MLOAD DUP4 SSTORE PUSH1 0x20 SWAP5 DUP6 ADD SWAP5 PUSH1 0x1 SWAP1 SWAP4 ADD SWAP3 SWAP1 SWAP2 ADD SWAP1 PUSH2 0x6E9 JUMP JUMPDEST ADD MLOAD SWAP1 POP CODESIZE DUP1 PUSH2 0x35C JUMP JUMPDEST SWAP3 POP PUSH1 0x3 DUP6 ADD PUSH1 0x0 MSTORE PUSH1 0x20 PUSH1 0x0 KECCAK256 SWAP1 PUSH1 0x0 SWAP4 JUMPDEST PUSH1 0x1F NOT DUP5 AND DUP6 LT PUSH2 0x7AA JUMPI PUSH1 0x1 SWAP5 POP DUP4 PUSH1 0x1F NOT DUP2 AND LT PUSH2 0x791 JUMPI JUMPDEST POP POP POP DUP2 SHL ADD PUSH1 0x3 DUP4 ADD SSTORE PUSH2 0x374 JUMP JUMPDEST ADD MLOAD PUSH1 0x0 NOT PUSH1 0xF8 DUP5 PUSH1 0x3 SHL AND SHR NOT AND SWAP1 SSTORE CODESIZE DUP1 DUP1 PUSH2 0x781 JUMP JUMPDEST DUP2 DUP2 ADD MLOAD DUP4 SSTORE PUSH1 0x20 SWAP5 DUP6 ADD SWAP5 PUSH1 0x1 SWAP1 SWAP4 ADD SWAP3 SWAP1 SWAP2 ADD SWAP1 PUSH2 0x766 JUMP JUMPDEST ADD MLOAD SWAP1 POP CODESIZE DUP1 PUSH2 0x2FC JUMP JUMPDEST SWAP3 POP PUSH1 0x2 DUP6 ADD PUSH1 0x0 MSTORE PUSH1 0x20 PUSH1 0x0 KECCAK256 SWAP1 PUSH1 0x0 SWAP4 JUMPDEST PUSH1 0x1F NOT DUP5 AND DUP6 LT PUSH2 0x827 JUMPI PUSH1 0x1 SWAP5 POP DUP4 PUSH1 0x1F NOT DUP2 AND LT PUSH2 0x80E JUMPI JUMPDEST POP POP POP DUP2 SHL ADD PUSH1 0x2 DUP4 ADD SSTORE PUSH2 0x314 JUMP JUMPDEST ADD MLOAD PUSH1 0x0 NOT PUSH1 0xF8 DUP5 PUSH1 0x3 SHL AND SHR NOT AND SWAP1 SSTORE CODESIZE DUP1 DUP1 PUSH2 0x7FE JUMP JUMPDEST DUP2 DUP2 ADD MLOAD DUP4 SSTORE PUSH1 0x20 SWAP5 DUP6 ADD SWAP5 PUSH1 0x1 SWAP1 SWAP4 ADD SWAP3 SWAP1 SWAP2 ADD SWAP1 PUSH2 0x7E3 JUMP JUMPDEST ADD MLOAD SWAP1 POP CODESIZE DUP1 PUSH2 0x29C JUMP JUMPDEST SWAP3 POP PUSH1 0x1 DUP6 ADD PUSH1 0x0 MSTORE PUSH1 0x20 PUSH1 0x0 KECCAK256 SWAP1 PUSH1 0x0 SWAP4 JUMPDEST PUSH1 0x1F NOT DUP5 AND DUP6 LT PUSH2 0x8A4 JUMPI PUSH1 0x1 SWAP5 POP DUP4 PUSH1 0x1F NOT DUP2 AND LT PUSH2 0x88B JUMPI JUMPDEST POP POP POP DUP2 SHL ADD PUSH1 0x1 DUP4 ADD SSTORE PUSH2 0x2B4 JUMP JUMPDEST ADD MLOAD PUSH1 0x0 NOT PUSH1 0xF8 DUP5 PUSH1 0x3 SHL AND SHR NOT AND SWAP1 SSTORE CODESIZE DUP1 DUP1 PUSH2 0x87B JUMP JUMPDEST DUP2 DUP2 ADD MLOAD DUP4 SSTORE PUSH1 0x20 SWAP5 DUP6 ADD SWAP5 PUSH1 0x1 SWAP1 SWAP4 ADD SWAP3 SWAP1 SWAP2 ADD SWAP1 PUSH2 0x860 JUMP JUMPDEST ADD MLOAD SWAP1 POP CODESIZE DUP1 PUSH2 0x23F JUMP JUMPDEST SWAP3 POP DUP5 PUSH1 0x0 MSTORE PUSH1 0x20 PUSH1 0x0 KECCAK256 SWAP1 PUSH1 0x0 SWAP4 JUMPDEST PUSH1 0x1F NOT DUP5 AND DUP6 LT PUSH2 0x91B JUMPI PUSH1 0x1 SWAP5 POP DUP4 PUSH1 0x1F NOT DUP2 AND LT PUSH2 0x902 JUMPI JUMPDEST POP POP POP DUP2 SHL ADD DUP3 SSTORE PUSH2 0x254 JUMP JUMPDEST ADD MLOAD PUSH1 0x0 NOT PUSH1 0xF8 DUP5 PUSH1 0x3 SHL AND SHR NOT AND SWAP1 SSTORE CODESIZE DUP1 DUP1 PUSH2 0x8F5 JUMP JUMPDEST DUP2 DUP2 ADD MLOAD DUP4 SSTORE PUSH1 0x20 SWAP5 DUP6 ADD SWAP5 PUSH1 0x1 SWAP1 SWAP4 ADD SWAP3 SWAP1 SWAP2 ADD SWAP1 PUSH2 0x8DA JUMP JUMPDEST PUSH1 0x40 MLOAD PUSH3 0x461BCD PUSH1 0xE5 SHL DUP2 MSTORE PUSH1 0x20 PUSH1 0x4 DUP3 ADD MSTORE PUSH1 0x23 PUSH1 0x24 DUP3 ADD MSTORE PUSH32 0x50726F6475637420616C72656164792072656769737465726564206F6E2D6368 PUSH1 0x44 DUP3 ADD MSTORE PUSH3 0x30B4B7 PUSH1 0xE9 SHL PUSH1 0x64 DUP3 ADD MSTORE PUSH1 0x84 SWAP1 REVERT JUMPDEST PUSH1 0x0 DUP1 REVERT JUMPDEST CALLVALUE PUSH2 0x987 JUMPI PUSH2 0x57D PUSH32 0xC801C4FA827EB2F345CB2650A992D8537E995883AE446C997EE43383120E4701 PUSH2 0x9BE CALLDATASIZE PUSH2 0x1016 JUMP JUMPDEST SWAP2 SWAP6 SWAP1 SWAP8 SWAP7 PUSH2 0x55A PUSH1 0x40 SWAP11 SWAP6 SWAP11 SWAP7 SWAP5 SWAP7 MLOAD DUP4 DUP4 DUP3 CALLDATACOPY PUSH1 0x20 DUP2 DUP6 DUP2 ADD PUSH1 0x3 DUP2 MSTORE SUB ADD SWAP1 KECCAK256 PUSH1 0x40 MLOAD SWAP1 PUSH2 0x9EE DUP3 PUSH2 0x1096 JUMP JUMPDEST PUSH1 0x40 MLOAD PUSH2 0x9FA DUP2 PUSH2 0x10CD JUMP JUMPDEST PUSH1 0xA DUP2 MSTORE PUSH10 0x191A5CDC185D18DA1959 PUSH1 0xB2 SHL PUSH1 0x20 DUP3 ADD MSTORE DUP3 MSTORE PUSH2 0xA1E CALLDATASIZE DUP7 DUP7 PUSH2 0x1109 JUMP JUMPDEST PUSH1 0x20 DUP4 ADD MSTORE PUSH2 0xA2E CALLDATASIZE DUP15 DUP10 PUSH2 0x1109 JUMP JUMPDEST PUSH1 0x40 DUP4 ADD MSTORE PUSH2 0xA3E CALLDATASIZE DUP12 DUP12 PUSH2 0x1109 JUMP JUMPDEST PUSH1 0x60 DUP4 ADD MSTORE CALLER PUSH1 0x80 DUP4 ADD MSTORE PUSH2 0xA54 CALLDATASIZE DUP8 DUP15 PUSH2 0x1109 JUMP JUMPDEST PUSH1 0xA0 DUP4 ADD MSTORE TIMESTAMP PUSH1 0xC0 DUP4 ADD MSTORE PUSH2 0x1241 JUMP JUMPDEST CALLVALUE PUSH2 0x987 JUMPI PUSH1 0x20 CALLDATASIZE PUSH1 0x3 NOT ADD SLT PUSH2 0x987 JUMPI PUSH1 0x4 CALLDATALOAD PUSH1 0x1 PUSH1 0x1 PUSH1 0x40 SHL SUB DUP2 GT PUSH2 0x987 JUMPI PUSH1 0xFF PUSH1 0x20 PUSH2 0xA99 DUP2 SWAP4 CALLDATASIZE SWAP1 PUSH1 0x4 ADD PUSH2 0xFA9 JUMP JUMPDEST SWAP2 SWAP1 DUP3 PUSH1 0x40 MLOAD SWAP4 DUP5 SWAP3 DUP4 CALLDATACOPY DUP2 ADD PUSH1 0x1 DUP2 MSTORE SUB ADD SWAP1 KECCAK256 SLOAD AND PUSH1 0x40 MLOAD SWAP1 ISZERO ISZERO DUP2 MSTORE RETURN JUMPDEST CALLVALUE PUSH2 0x987 JUMPI PUSH2 0x57D PUSH32 0x555B672E7A6FEB58C2CFCF23B0B7437B47B2C43EE27160179B601A5278A8F65A PUSH2 0xAEC CALLDATASIZE PUSH2 0x1016 JUMP JUMPDEST SWAP2 SWAP6 SWAP1 SWAP8 SWAP7 PUSH2 0x55A PUSH1 0x40 SWAP11 SWAP6 SWAP11 SWAP7 SWAP5 SWAP7 MLOAD DUP4 DUP4 DUP3 CALLDATACOPY PUSH1 0x20 DUP2 DUP6 DUP2 ADD PUSH1 0x3 DUP2 MSTORE SUB ADD SWAP1 KECCAK256 PUSH1 0x40 MLOAD SWAP1 PUSH2 0xB1C DUP3 PUSH2 0x1096 JUMP JUMPDEST PUSH1 0x40 MLOAD PUSH2 0xB28 DUP2 PUSH2 0x10CD JUMP JUMPDEST PUSH1 0x8 DUP2 MSTORE PUSH8 0x1C9958D95A5D9959 PUSH1 0xC2 SHL PUSH1 0x20 DUP3 ADD MSTORE DUP3 MSTORE PUSH2 0xA1E CALLDATASIZE DUP7 DUP7 PUSH2 0x1109 JUMP JUMPDEST CALLVALUE PUSH2 0x987 JUMPI PUSH1 0x20 CALLDATASIZE PUSH1 0x3 NOT ADD SLT PUSH2 0x987 JUMPI PUSH1 0x4 CALLDATALOAD PUSH1 0x1 PUSH1 0x1 PUSH1 0x40 SHL SUB DUP2 GT PUSH2 0x987 JUMPI PUSH2 0xB7A SWAP1 CALLDATASIZE SWAP1 PUSH1 0x4 ADD PUSH2 0xFA9 JUMP JUMPDEST SWAP1 PUSH1 0x0 PUSH2 0x120 PUSH1 0x40 MLOAD PUSH2 0xB8C DUP2 PUSH2 0x10B1 JUMP JUMPDEST PUSH1 0x60 DUP2 MSTORE PUSH1 0x60 PUSH1 0x20 DUP3 ADD MSTORE PUSH1 0x60 PUSH1 0x40 DUP3 ADD MSTORE PUSH1 0x60 DUP1 DUP3 ADD MSTORE PUSH1 0x60 PUSH1 0x80 DUP3 ADD MSTORE DUP3 PUSH1 0xA0 DUP3 ADD MSTORE DUP3 PUSH1 0xC0 DUP3 ADD MSTORE DUP3 PUSH1 0xE0 DUP3 ADD MSTORE PUSH1 0x60 PUSH2 0x100 DUP3 ADD MSTORE ADD MSTORE PUSH1 0xFF PUSH1 0x40 MLOAD DUP4 DUP4 DUP3 CALLDATACOPY PUSH1 0x20 DUP2 DUP6 DUP2 ADD PUSH1 0x1 DUP2 MSTORE SUB ADD SWAP1 KECCAK256 SLOAD AND ISZERO PUSH2 0xD6F JUMPI PUSH1 0x20 SWAP1 DUP3 PUSH1 0x40 MLOAD SWAP4 DUP5 SWAP3 DUP4 CALLDATACOPY DUP2 ADD PUSH1 0x0 DUP2 MSTORE SUB ADD SWAP1 KECCAK256 PUSH1 0x9 PUSH1 0x40 MLOAD SWAP2 PUSH2 0xC0A DUP4 PUSH2 0x10B1 JUMP JUMPDEST PUSH2 0xC13 DUP2 PUSH2 0x1671 JUMP JUMPDEST DUP4 MSTORE PUSH2 0xC21 PUSH1 0x1 DUP3 ADD PUSH2 0x1671 JUMP JUMPDEST PUSH1 0x20 DUP5 ADD MSTORE PUSH2 0xC32 PUSH1 0x2 DUP3 ADD PUSH2 0x1671 JUMP JUMPDEST PUSH1 0x40 DUP5 ADD MSTORE PUSH2 0xC43 PUSH1 0x3 DUP3 ADD PUSH2 0x1671 JUMP JUMPDEST PUSH1 0x60 DUP5 ADD MSTORE PUSH2 0xC54 PUSH1 0x4 DUP3 ADD PUSH2 0x1671 JUMP JUMPDEST PUSH1 0x80 DUP5 ADD MSTORE PUSH1 0x5 DUP2 ADD SLOAD PUSH1 0xA0 DUP5 ADD MSTORE PUSH1 0x6 DUP2 ADD SLOAD PUSH1 0xC0 DUP5 ADD MSTORE PUSH1 0x7 DUP2 ADD SLOAD PUSH1 0x1 PUSH1 0x1 PUSH1 0xA0 SHL SUB AND PUSH1 0xE0 DUP5 ADD MSTORE PUSH2 0xC8C PUSH1 0x8 DUP3 ADD PUSH2 0x1671 JUMP JUMPDEST PUSH2 0x100 DUP5 ADD MSTORE ADD SLOAD PUSH2 0x120 DUP3 ADD MSTORE PUSH1 0x40 MLOAD DUP1 SWAP2 PUSH1 0x20 DUP3 MSTORE PUSH2 0x120 PUSH2 0xD62 PUSH2 0xD25 PUSH2 0xD0F PUSH2 0xCF9 PUSH2 0xCE3 PUSH2 0xCCD DUP8 MLOAD PUSH2 0x140 PUSH1 0x20 DUP12 ADD MSTORE PUSH2 0x160 DUP11 ADD SWAP1 PUSH2 0xFD6 JUMP JUMPDEST PUSH1 0x20 DUP9 ADD MLOAD DUP10 DUP3 SUB PUSH1 0x1F NOT ADD PUSH1 0x40 DUP12 ADD MSTORE PUSH2 0xFD6 JUMP JUMPDEST PUSH1 0x40 DUP8 ADD MLOAD DUP9 DUP3 SUB PUSH1 0x1F NOT ADD PUSH1 0x60 DUP11 ADD MSTORE PUSH2 0xFD6 JUMP JUMPDEST PUSH1 0x60 DUP7 ADD MLOAD DUP8 DUP3 SUB PUSH1 0x1F NOT ADD PUSH1 0x80 DUP10 ADD MSTORE PUSH2 0xFD6 JUMP JUMPDEST PUSH1 0x80 DUP6 ADD MLOAD DUP7 DUP3 SUB PUSH1 0x1F NOT ADD PUSH1 0xA0 DUP9 ADD MSTORE PUSH2 0xFD6 JUMP JUMPDEST PUSH1 0xA0 DUP5 ADD MLOAD PUSH1 0xC0 DUP7 ADD MSTORE PUSH1 0xC0 DUP5 ADD MLOAD PUSH1 0xE0 DUP7 ADD MSTORE PUSH1 0x1 DUP1 PUSH1 0xA0 SHL SUB PUSH1 0xE0 DUP6 ADD MLOAD AND PUSH2 0x100 DUP7 ADD MSTORE PUSH2 0x100 DUP5 ADD MLOAD PUSH1 0x1F NOT DUP7 DUP4 SUB ADD DUP5 DUP8 ADD MSTORE PUSH2 0xFD6 JUMP JUMPDEST SWAP2 ADD MLOAD PUSH2 0x140 DUP4 ADD MSTORE SUB SWAP1 RETURN JUMPDEST PUSH1 0x40 MLOAD PUSH3 0x461BCD PUSH1 0xE5 SHL DUP2 MSTORE PUSH1 0x20 PUSH1 0x4 DUP3 ADD MSTORE PUSH1 0x11 PUSH1 0x24 DUP3 ADD MSTORE PUSH17 0x141C9BD91D58DD081B9BDD08199BDD5B99 PUSH1 0x7A SHL PUSH1 0x44 DUP3 ADD MSTORE PUSH1 0x64 SWAP1 REVERT JUMPDEST CALLVALUE PUSH2 0x987 JUMPI PUSH1 0x0 CALLDATASIZE PUSH1 0x3 NOT ADD SLT PUSH2 0x987 JUMPI PUSH1 0x20 PUSH1 0x2 SLOAD PUSH1 0x40 MLOAD SWAP1 DUP2 MSTORE RETURN JUMPDEST CALLVALUE PUSH2 0x987 JUMPI PUSH1 0x20 DUP1 PUSH1 0x3 NOT CALLDATASIZE ADD SLT PUSH2 0x987 JUMPI PUSH1 0x1 PUSH1 0x1 PUSH1 0x40 SHL SUB PUSH1 0x4 CALLDATALOAD DUP2 DUP2 GT PUSH2 0x987 JUMPI PUSH2 0xDF8 SWAP1 CALLDATASIZE SWAP1 PUSH1 0x4 ADD PUSH2 0xFA9 JUMP JUMPDEST DUP1 SWAP2 DUP6 CALLDATACOPY DUP4 ADD SWAP3 DUP3 DUP2 PUSH1 0x3 SWAP6 DUP7 DUP2 MSTORE SUB ADD SWAP1 KECCAK256 SWAP1 DUP2 SLOAD SWAP1 DUP2 GT PUSH2 0x61E JUMPI SWAP2 PUSH1 0x40 MLOAD SWAP3 PUSH1 0x5 SWAP5 PUSH2 0xE2B DUP4 DUP4 DUP9 SHL ADD DUP7 PUSH2 0x10E8 JUMP JUMPDEST DUP2 DUP6 MSTORE PUSH1 0x0 SWAP4 DUP5 MSTORE DUP3 DUP5 KECCAK256 DUP4 DUP7 ADD SWAP5 SWAP2 DUP6 JUMPDEST DUP5 DUP5 LT PUSH2 0xF1D JUMPI POP POP POP POP POP PUSH1 0x40 MLOAD SWAP3 DUP2 DUP5 ADD SWAP1 DUP3 DUP6 MSTORE MLOAD DUP1 SWAP2 MSTORE PUSH1 0x40 DUP2 DUP2 DUP7 ADD SWAP7 SHL DUP6 ADD ADD SWAP3 SWAP2 PUSH1 0x0 SWAP6 JUMPDEST DUP3 DUP8 LT PUSH2 0xE76 JUMPI DUP6 DUP6 SUB DUP7 RETURN JUMPDEST SWAP1 SWAP2 SWAP3 SWAP4 DUP3 DUP1 PUSH1 0x1 SWAP3 PUSH1 0x3F NOT DUP10 DUP3 SUB ADD DUP6 MSTORE DUP8 MLOAD SWAP1 PUSH2 0xF03 PUSH2 0xEDF PUSH2 0xECC PUSH2 0xEBA PUSH2 0xEAA DUP7 MLOAD PUSH1 0xE0 DUP8 MSTORE PUSH1 0xE0 DUP8 ADD SWAP1 PUSH2 0xFD6 JUMP JUMPDEST DUP8 DUP8 ADD MLOAD DUP7 DUP3 SUB DUP10 DUP9 ADD MSTORE PUSH2 0xFD6 JUMP JUMPDEST PUSH1 0x40 DUP7 ADD MLOAD DUP6 DUP3 SUB PUSH1 0x40 DUP8 ADD MSTORE PUSH2 0xFD6 JUMP JUMPDEST PUSH1 0x60 DUP1 DUP7 ADD MLOAD SWAP1 DUP6 DUP4 SUB SWAP1 DUP7 ADD MSTORE PUSH2 0xFD6 JUMP JUMPDEST PUSH1 0x80 DUP8 DUP1 PUSH1 0xA0 SHL SUB DUP2 DUP7 ADD MLOAD AND SWAP1 DUP5 ADD MSTORE PUSH1 0xA0 DUP1 DUP6 ADD MLOAD SWAP1 DUP5 DUP4 SUB SWAP1 DUP6 ADD MSTORE PUSH2 0xFD6 JUMP JUMPDEST SWAP2 PUSH1 0xC0 DUP1 SWAP2 ADD MLOAD SWAP2 ADD MSTORE SWAP7 ADD SWAP3 ADD SWAP7 ADD SWAP6 SWAP3 SWAP2 SWAP1 SWAP3 PUSH2 0xE69 JUMP JUMPDEST PUSH1 0x7 DUP7 PUSH1 0x1 SWAP3 PUSH1 0x40 SWAP11 SWAP9 SWAP11 MLOAD PUSH2 0xF32 DUP2 PUSH2 0x1096 JUMP JUMPDEST PUSH2 0xF3B DUP8 PUSH2 0x1671 JUMP JUMPDEST DUP2 MSTORE PUSH2 0xF48 DUP6 DUP9 ADD PUSH2 0x1671 JUMP JUMPDEST DUP4 DUP3 ADD MSTORE PUSH2 0xF58 PUSH1 0x2 DUP9 ADD PUSH2 0x1671 JUMP JUMPDEST PUSH1 0x40 DUP3 ADD MSTORE PUSH2 0xF68 DUP7 DUP9 ADD PUSH2 0x1671 JUMP JUMPDEST PUSH1 0x60 DUP3 ADD MSTORE DUP5 DUP1 PUSH1 0xA0 SHL SUB PUSH1 0x4 DUP9 ADD SLOAD AND PUSH1 0x80 DUP3 ADD MSTORE PUSH2 0xF89 DUP14 DUP9 ADD PUSH2 0x1671 JUMP JUMPDEST PUSH1 0xA0 DUP3 ADD MSTORE PUSH1 0x6 DUP8 ADD SLOAD PUSH1 0xC0 DUP3 ADD MSTORE DUP2 MSTORE ADD SWAP4 ADD SWAP4 ADD SWAP3 SWAP2 SWAP7 SWAP5 SWAP7 PUSH2 0xE3D JUMP JUMPDEST SWAP2 DUP2 PUSH1 0x1F DUP5 ADD SLT ISZERO PUSH2 0x987 JUMPI DUP3 CALLDATALOAD SWAP2 PUSH1 0x1 PUSH1 0x1 PUSH1 0x40 SHL SUB DUP4 GT PUSH2 0x987 JUMPI PUSH1 0x20 DUP4 DUP2 DUP7 ADD SWAP6 ADD ADD GT PUSH2 0x987 JUMPI JUMP JUMPDEST SWAP2 SWAP1 DUP3 MLOAD SWAP3 DUP4 DUP3 MSTORE PUSH1 0x0 JUMPDEST DUP5 DUP2 LT PUSH2 0x1002 JUMPI POP POP DUP3 PUSH1 0x0 PUSH1 0x20 DUP1 SWAP5 SWAP6 DUP5 ADD ADD MSTORE PUSH1 0x1F DUP1 NOT SWAP2 ADD AND ADD ADD SWAP1 JUMP JUMPDEST PUSH1 0x20 DUP2 DUP4 ADD DUP2 ADD MLOAD DUP5 DUP4 ADD DUP3 ADD MSTORE ADD PUSH2 0xFE1 JUMP JUMPDEST PUSH1 0x80 PUSH1 0x3 NOT DUP3 ADD SLT PUSH2 0x987 JUMPI PUSH1 0x1 PUSH1 0x1 PUSH1 0x40 SHL SUB SWAP1 PUSH1 0x4 CALLDATALOAD DUP3 DUP2 GT PUSH2 0x987 JUMPI DUP2 PUSH2 0x1042 SWAP2 PUSH1 0x4 ADD PUSH2 0xFA9 JUMP JUMPDEST SWAP4 SWAP1 SWAP4 SWAP3 PUSH1 0x24 CALLDATALOAD DUP2 DUP2 GT PUSH2 0x987 JUMPI DUP4 PUSH2 0x105D SWAP2 PUSH1 0x4 ADD PUSH2 0xFA9 JUMP JUMPDEST SWAP4 SWAP1 SWAP4 SWAP3 PUSH1 0x44 CALLDATALOAD DUP4 DUP2 GT PUSH2 0x987 JUMPI DUP3 PUSH2 0x1078 SWAP2 PUSH1 0x4 ADD PUSH2 0xFA9 JUMP JUMPDEST SWAP4 SWAP1 SWAP4 SWAP3 PUSH1 0x64 CALLDATALOAD SWAP2 DUP3 GT PUSH2 0x987 JUMPI PUSH2 0x1092 SWAP2 PUSH1 0x4 ADD PUSH2 0xFA9 JUMP JUMPDEST SWAP1 SWAP2 JUMP JUMPDEST PUSH1 0xE0 DUP2 ADD SWAP1 DUP2 LT PUSH1 0x1 PUSH1 0x1 PUSH1 0x40 SHL SUB DUP3 GT OR PUSH2 0x61E JUMPI PUSH1 0x40 MSTORE JUMP JUMPDEST PUSH2 0x140 DUP2 ADD SWAP1 DUP2 LT PUSH1 0x1 PUSH1 0x1 PUSH1 0x40 SHL SUB DUP3 GT OR PUSH2 0x61E JUMPI PUSH1 0x40 MSTORE JUMP JUMPDEST PUSH1 0x40 DUP2 ADD SWAP1 DUP2 LT PUSH1 0x1 PUSH1 0x1 PUSH1 0x40 SHL SUB DUP3 GT OR PUSH2 0x61E JUMPI PUSH1 0x40 MSTORE JUMP JUMPDEST SWAP1 PUSH1 0x1F DUP1 NOT SWAP2 ADD AND DUP2 ADD SWAP1 DUP2 LT PUSH1 0x1 PUSH1 0x1 PUSH1 0x40 SHL SUB DUP3 GT OR PUSH2 0x61E JUMPI PUSH1 0x40 MSTORE JUMP JUMPDEST SWAP3 SWAP2 SWAP3 PUSH1 0x1 PUSH1 0x1 PUSH1 0x40 SHL SUB DUP3 GT PUSH2 0x61E JUMPI PUSH1 0x40 MLOAD SWAP2 PUSH2 0x1132 PUSH1 0x1F DUP3 ADD PUSH1 0x1F NOT AND PUSH1 0x20 ADD DUP5 PUSH2 0x10E8 JUMP JUMPDEST DUP3 SWAP5 DUP2 DUP5 MSTORE DUP2 DUP4 ADD GT PUSH2 0x987 JUMPI DUP3 DUP2 PUSH1 0x20 SWAP4 DUP5 PUSH1 0x0 SWAP7 ADD CALLDATACOPY ADD ADD MSTORE JUMP JUMPDEST SWAP1 PUSH1 0x1 DUP3 DUP2 SHR SWAP3 AND DUP1 ISZERO PUSH2 0x117F JUMPI JUMPDEST PUSH1 0x20 DUP4 LT EQ PUSH2 0x1169 JUMPI JUMP JUMPDEST PUSH4 0x4E487B71 PUSH1 0xE0 SHL PUSH1 0x0 MSTORE PUSH1 0x22 PUSH1 0x4 MSTORE PUSH1 0x24 PUSH1 0x0 REVERT JUMPDEST SWAP2 PUSH1 0x7F AND SWAP2 PUSH2 0x115E JUMP JUMPDEST SWAP1 PUSH1 0x1F DUP2 GT PUSH2 0x1197 JUMPI POP POP POP JUMP JUMPDEST PUSH1 0x0 SWAP2 DUP3 MSTORE PUSH1 0x20 DUP3 KECCAK256 SWAP1 PUSH1 0x20 PUSH1 0x1F DUP6 ADD PUSH1 0x5 SHR DUP4 ADD SWAP5 LT PUSH2 0x11D3 JUMPI JUMPDEST PUSH1 0x1F ADD PUSH1 0x5 SHR ADD SWAP2 JUMPDEST DUP3 DUP2 LT PUSH2 0x11C8 JUMPI POP POP POP JUMP JUMPDEST DUP2 DUP2 SSTORE PUSH1 0x1 ADD PUSH2 0x11BC JUMP JUMPDEST SWAP1 SWAP3 POP DUP3 SWAP1 PUSH2 0x11B3 JUMP JUMPDEST SWAP1 DUP1 PUSH1 0x20 SWAP4 SWAP3 DUP2 DUP5 MSTORE DUP5 DUP5 ADD CALLDATACOPY PUSH1 0x0 DUP3 DUP3 ADD DUP5 ADD MSTORE PUSH1 0x1F ADD PUSH1 0x1F NOT AND ADD ADD SWAP1 JUMP JUMPDEST SWAP8 SWAP7 SWAP6 SWAP2 SWAP3 PUSH2 0x123C SWAP5 PUSH2 0x1220 PUSH2 0x122E SWAP4 PUSH1 0x60 SWAP9 SWAP7 PUSH1 0x80 DUP14 MSTORE PUSH1 0x80 DUP14 ADD SWAP2 PUSH2 0x11DD JUMP JUMPDEST SWAP2 DUP11 DUP4 SUB PUSH1 0x20 DUP13 ADD MSTORE PUSH2 0x11DD JUMP JUMPDEST SWAP2 DUP8 DUP4 SUB PUSH1 0x40 DUP10 ADD MSTORE PUSH2 0x11DD JUMP JUMPDEST SWAP4 ADD MSTORE JUMP JUMPDEST DUP1 SLOAD SWAP2 PUSH1 0x1 PUSH1 0x40 SHL DUP4 LT ISZERO PUSH2 0x61E JUMPI PUSH1 0x1 SWAP3 DUP4 DUP2 ADD DUP1 DUP5 SSTORE DUP2 LT ISZERO PUSH2 0x634 JUMPI PUSH1 0x0 SWAP3 DUP4 MSTORE PUSH1 0x20 SWAP1 PUSH1 0x7 DUP3 DUP6 KECCAK256 SWAP2 MUL ADD SWAP4 DUP3 MLOAD SWAP1 DUP2 MLOAD PUSH1 0x1 PUSH1 0x1 PUSH1 0x40 SHL SUB SWAP3 DUP4 DUP3 GT PUSH2 0x14A1 JUMPI DUP2 SWAP1 PUSH2 0x129C DUP3 PUSH2 0x1296 DUP12 SLOAD PUSH2 0x114F JUMP JUMPDEST DUP12 PUSH2 0x1189 JUMP JUMPDEST DUP6 SWAP1 PUSH1 0x1F DUP4 GT PUSH1 0x1 EQ PUSH2 0x1612 JUMPI DUP9 SWAP3 PUSH2 0x1607 JUMPI JUMPDEST POP POP PUSH1 0x0 NOT PUSH1 0x3 DUP4 SWAP1 SHL SHR NOT AND SWAP1 DUP3 SHL OR DUP7 SSTORE JUMPDEST DUP1 DUP7 ADD DUP4 DUP6 ADD MLOAD DUP1 MLOAD SWAP1 DUP5 DUP3 GT PUSH2 0x151F JUMPI DUP2 SWAP1 PUSH2 0x12EB DUP3 PUSH2 0x12E5 DUP7 SLOAD PUSH2 0x114F JUMP JUMPDEST DUP7 PUSH2 0x1189 JUMP JUMPDEST DUP7 SWAP1 PUSH1 0x1F DUP4 GT PUSH1 0x1 EQ PUSH2 0x15A8 JUMPI DUP10 SWAP3 PUSH2 0x159D JUMPI JUMPDEST POP POP PUSH1 0x0 NOT PUSH1 0x3 DUP4 SWAP1 SHL SHR NOT AND SWAP1 DUP4 SHL OR SWAP1 SSTORE JUMPDEST PUSH1 0x2 DUP7 ADD PUSH1 0x40 DUP6 ADD MLOAD DUP1 MLOAD SWAP1 DUP5 DUP3 GT PUSH2 0x151F JUMPI DUP2 SWAP1 PUSH2 0x1336 DUP3 PUSH2 0x12E5 DUP7 SLOAD PUSH2 0x114F JUMP JUMPDEST DUP7 SWAP1 PUSH1 0x1F DUP4 GT PUSH1 0x1 EQ PUSH2 0x153E JUMPI DUP10 SWAP3 PUSH2 0x1533 JUMPI JUMPDEST POP POP PUSH1 0x0 NOT PUSH1 0x3 DUP4 SWAP1 SHL SHR NOT AND SWAP1 DUP4 SHL OR SWAP1 SSTORE JUMPDEST PUSH1 0x3 DUP7 ADD PUSH1 0x60 DUP6 ADD MLOAD DUP1 MLOAD SWAP1 DUP5 DUP3 GT PUSH2 0x151F JUMPI DUP2 SWAP1 PUSH2 0x1381 DUP3 PUSH2 0x12E5 DUP7 SLOAD PUSH2 0x114F JUMP JUMPDEST DUP7 SWAP1 PUSH1 0x1F DUP4 GT PUSH1 0x1 EQ PUSH2 0x14C0 JUMPI DUP10 SWAP3 PUSH2 0x14B5 JUMPI JUMPDEST POP POP PUSH1 0x0 NOT PUSH1 0x3 DUP4 SWAP1 SHL SHR NOT AND SWAP1 DUP4 SHL OR SWAP1 SSTORE JUMPDEST PUSH1 0x4 DUP7 ADD PUSH1 0x1 DUP1 PUSH1 0xA0 SHL SUB PUSH1 0x80 DUP7 ADD MLOAD AND PUSH12 0xFFFFFFFFFFFFFFFFFFFFFFFF PUSH1 0xA0 SHL DUP3 SLOAD AND OR SWAP1 SSTORE PUSH1 0x5 DUP7 ADD SWAP3 PUSH1 0xA0 DUP6 ADD MLOAD DUP1 MLOAD SWAP4 DUP5 GT PUSH2 0x14A1 JUMPI PUSH2 0x13F1 DUP5 PUSH2 0x223 DUP8 SLOAD PUSH2 0x114F JUMP JUMPDEST DUP2 PUSH1 0x1F DUP6 GT PUSH1 0x1 EQ PUSH2 0x1435 JUMPI POP SWAP3 DUP1 SWAP3 DUP2 SWAP3 PUSH1 0xC0 SWAP8 SWAP7 SWAP6 PUSH1 0x6 SWAP10 SWAP5 PUSH2 0x142A JUMPI JUMPDEST POP POP SHL SWAP2 PUSH1 0x0 NOT SWAP1 PUSH1 0x3 SHL SHR NOT AND OR SWAP1 SSTORE JUMPDEST ADD MLOAD SWAP2 ADD SSTORE JUMP JUMPDEST ADD MLOAD SWAP3 POP CODESIZE DUP1 PUSH2 0x1411 JUMP JUMPDEST DUP6 DUP9 MSTORE DUP1 DUP9 KECCAK256 SWAP7 SWAP8 SWAP6 SWAP7 SWAP4 SWAP6 PUSH1 0x1F NOT DUP7 AND SWAP2 JUMPDEST DUP3 DUP3 LT PUSH2 0x148A JUMPI POP POP SWAP2 PUSH1 0x6 SWAP8 SWAP6 SWAP4 SWAP2 DUP6 PUSH1 0xC0 SWAP9 SWAP7 SWAP5 LT PUSH2 0x1471 JUMPI JUMPDEST POP POP POP DUP2 SHL ADD SWAP1 SSTORE PUSH2 0x1423 JUMP JUMPDEST ADD MLOAD PUSH1 0x0 NOT PUSH1 0xF8 DUP5 PUSH1 0x3 SHL AND SHR NOT AND SWAP1 SSTORE CODESIZE DUP1 DUP1 PUSH2 0x1464 JUMP JUMPDEST DUP1 DUP9 DUP7 SWAP8 DUP3 SWAP5 SWAP8 DUP8 ADD MLOAD DUP2 SSTORE ADD SWAP7 ADD SWAP5 ADD SWAP1 PUSH2 0x1448 JUMP JUMPDEST PUSH4 0x4E487B71 PUSH1 0xE0 SHL DUP8 MSTORE PUSH1 0x41 PUSH1 0x4 MSTORE PUSH1 0x24 DUP8 REVERT JUMPDEST ADD MLOAD SWAP1 POP CODESIZE DUP1 PUSH2 0x1395 JUMP JUMPDEST DUP5 DUP11 MSTORE DUP8 DUP11 KECCAK256 DUP7 SWAP5 POP SWAP2 SWAP1 PUSH1 0x1F NOT DUP5 AND DUP12 JUMPDEST DUP11 DUP3 DUP3 LT PUSH2 0x1509 JUMPI POP POP DUP5 GT PUSH2 0x14F0 JUMPI JUMPDEST POP POP POP DUP2 SHL ADD SWAP1 SSTORE PUSH2 0x13A9 JUMP JUMPDEST ADD MLOAD PUSH1 0x0 NOT PUSH1 0xF8 DUP5 PUSH1 0x3 SHL AND SHR NOT AND SWAP1 SSTORE CODESIZE DUP1 DUP1 PUSH2 0x14E3 JUMP JUMPDEST DUP4 DUP6 ADD MLOAD DUP7 SSTORE DUP10 SWAP8 SWAP1 SWAP6 ADD SWAP5 SWAP4 DUP5 ADD SWAP4 ADD PUSH2 0x14D2 JUMP JUMPDEST PUSH4 0x4E487B71 PUSH1 0xE0 SHL DUP9 MSTORE PUSH1 0x41 PUSH1 0x4 MSTORE PUSH1 0x24 DUP9 REVERT JUMPDEST ADD MLOAD SWAP1 POP CODESIZE DUP1 PUSH2 0x134A JUMP JUMPDEST DUP5 DUP11 MSTORE DUP8 DUP11 KECCAK256 DUP7 SWAP5 POP SWAP2 SWAP1 PUSH1 0x1F NOT DUP5 AND DUP12 JUMPDEST DUP11 DUP3 DUP3 LT PUSH2 0x1587 JUMPI POP POP DUP5 GT PUSH2 0x156E JUMPI JUMPDEST POP POP POP DUP2 SHL ADD SWAP1 SSTORE PUSH2 0x135E JUMP JUMPDEST ADD MLOAD PUSH1 0x0 NOT PUSH1 0xF8 DUP5 PUSH1 0x3 SHL AND SHR NOT AND SWAP1 SSTORE CODESIZE DUP1 DUP1 PUSH2 0x1561 JUMP JUMPDEST DUP4 DUP6 ADD MLOAD DUP7 SSTORE DUP10 SWAP8 SWAP1 SWAP6 ADD SWAP5 SWAP4 DUP5 ADD SWAP4 ADD PUSH2 0x1550 JUMP JUMPDEST ADD MLOAD SWAP1 POP CODESIZE DUP1 PUSH2 0x12FF JUMP JUMPDEST DUP5 DUP11 MSTORE DUP8 DUP11 KECCAK256 DUP7 SWAP5 POP SWAP2 SWAP1 PUSH1 0x1F NOT DUP5 AND DUP12 JUMPDEST DUP11 DUP3 DUP3 LT PUSH2 0x15F1 JUMPI POP POP DUP5 GT PUSH2 0x15D8 JUMPI JUMPDEST POP POP POP DUP2 SHL ADD SWAP1 SSTORE PUSH2 0x1313 JUMP JUMPDEST ADD MLOAD PUSH1 0x0 NOT PUSH1 0xF8 DUP5 PUSH1 0x3 SHL AND SHR NOT AND SWAP1 SSTORE CODESIZE DUP1 DUP1 PUSH2 0x15CB JUMP JUMPDEST DUP4 DUP6 ADD MLOAD DUP7 SSTORE DUP10 SWAP8 SWAP1 SWAP6 ADD SWAP5 SWAP4 DUP5 ADD SWAP4 ADD PUSH2 0x15BA JUMP JUMPDEST ADD MLOAD SWAP1 POP CODESIZE DUP1 PUSH2 0x12B0 JUMP JUMPDEST DUP10 DUP10 MSTORE DUP7 DUP10 KECCAK256 DUP6 SWAP5 POP SWAP2 SWAP1 PUSH1 0x1F NOT DUP5 AND DUP11 JUMPDEST DUP10 DUP3 DUP3 LT PUSH2 0x165B JUMPI POP POP DUP5 GT PUSH2 0x1642 JUMPI JUMPDEST POP POP POP DUP2 SHL ADD DUP7 SSTORE PUSH2 0x12C4 JUMP JUMPDEST ADD MLOAD PUSH1 0x0 NOT PUSH1 0xF8 DUP5 PUSH1 0x3 SHL AND SHR NOT AND SWAP1 SSTORE CODESIZE DUP1 DUP1 PUSH2 0x1635 JUMP JUMPDEST DUP4 DUP6 ADD MLOAD DUP7 SSTORE DUP9 SWAP8 SWAP1 SWAP6 ADD SWAP5 SWAP4 DUP5 ADD SWAP4 ADD PUSH2 0x1624 JUMP JUMPDEST SWAP1 PUSH1 0x40 MLOAD SWAP2 DUP3 PUSH1 0x0 DUP3 SLOAD SWAP3 PUSH2 0x1685 DUP5 PUSH2 0x114F JUMP JUMPDEST SWAP1 DUP2 DUP5 MSTORE PUSH1 0x1 SWAP5 DUP6 DUP2 AND SWAP1 DUP2 PUSH1 0x0 EQ PUSH2 0x16F4 JUMPI POP PUSH1 0x1 EQ PUSH2 0x16B1 JUMPI JUMPDEST POP POP PUSH2 0x16AF SWAP3 POP SUB DUP4 PUSH2 0x10E8 JUMP JUMPDEST JUMP JUMPDEST SWAP1 SWAP4 SWAP2 POP PUSH1 0x0 MSTORE PUSH1 0x20 SWAP1 DUP2 PUSH1 0x0 KECCAK256 SWAP4 PUSH1 0x0 SWAP2 JUMPDEST DUP2 DUP4 LT PUSH2 0x16DC JUMPI POP POP PUSH2 0x16AF SWAP4 POP DUP3 ADD ADD CODESIZE DUP1 PUSH2 0x16A1 JUMP JUMPDEST DUP6 SLOAD DUP9 DUP5 ADD DUP6 ADD MSTORE SWAP5 DUP6 ADD SWAP5 DUP8 SWAP5 POP SWAP2 DUP4 ADD SWAP2 PUSH2 0x16C4 JUMP JUMPDEST SWAP2 POP POP PUSH2 0x16AF SWAP5 POP PUSH1 0x20 SWAP3 POP PUSH1 0xFF NOT AND DUP3 DUP5 ADD MSTORE ISZERO ISZERO PUSH1 0x5 SHL DUP3 ADD ADD CODESIZE DUP1 PUSH2 0x16A1 JUMP INVALID LOG2 PUSH5 0x6970667358 0x22 SLT KECCAK256 SDIV 0x4D 0xE5 0xAB 0xCB 0x2C 0xF8 CHAINID 0xE8 DUP2 PUSH28 0xB1202589DCADC7B3673B3EE00CA7783B4E62B5644664736F6C634300 ADDMOD EQ STOP CALLER "},"methodIdentifiers":{"getProduct(string)":"68111cce","getProductCount()":"4a348da9","getShipmentEvents(string)":"32f197a5","isRegistered(string)":"c822d7f0","recordDispatch(string,string,string,string)":"d4e8e215","recordReceive(string,string,string,string)":"8621f228","registerProduct(string,string,string,string,string,uint256,uint256,string)":"e6572d62"}}}}}