{
  "_format": "hh-sol-artifact-1",
  "contractName": "MedXProductRegistry",
  "sourceName": "contracts/MedXProductRegistry.sol",
  "abi": [
    {
      "anonymous": false,
      "inputs": [
        {
          "indexed": true,
          "internalType": "string",
          "name": "productId",
          "type": "string"
        },
        {
          "indexed": false,
          "internalType": "string",
          "name": "name",
          "type": "string"
        },
        {
          "indexed": false,
          "internalType": "string",
          "name": "sku",
          "type": "string"
        },
        {
          "indexed": true,
          "internalType": "address",
          "name": "addedBy",
          "type": "address"
        },
        {
          "indexed": false,
          "internalType": "string",
          "name": "addedByRole",
          "type": "string"
        },
        {
          "indexed": false,
          "internalType": "uint256",
          "name": "timestamp",
          "type": "uint256"
        }
      ],
      "name": "ProductRegistered",
      "type": "event"
    },
    {
      "anonymous": false,
      "inputs": [
        {
          "indexed": true,
          "internalType": "string",
          "name": "shipmentId",
          "type": "string"
        },
        {
          "indexed": false,
          "internalType": "string",
          "name": "fromEntity",
          "type": "string"
        },
        {
          "indexed": false,
          "internalType": "string",
          "name": "toEntity",
          "type": "string"
        },
        {
          "indexed": true,
          "internalType": "address",
          "name": "actor",
          "type": "address"
        },
        {
          "indexed": false,
          "internalType": "string",
          "name": "actorRole",
          "type": "string"
        },
        {
          "indexed": false,
          "internalType": "uint256",
          "name": "timestamp",
          "type": "uint256"
        }
      ],
      "name": "ShipmentDispatched",
      "type": "event"
    },
    {
      "anonymous": false,
      "inputs": [
        {
          "indexed": true,
          "internalType": "string",
          "name": "shipmentId",
          "type": "string"
        },
        {
          "indexed": false,
          "internalType": "string",
          "name": "fromEntity",
          "type": "string"
        },
        {
          "indexed": false,
          "internalType": "string",
          "name": "toEntity",
          "type": "string"
        },
        {
          "indexed": true,
          "internalType": "address",
          "name": "actor",
          "type": "address"
        },
        {
          "indexed": false,
          "internalType": "string",
          "name": "actorRole",
          "type": "string"
        },
        {
          "indexed": false,
          "internalType": "uint256",
          "name": "timestamp",
          "type": "uint256"
        }
      ],
      "name": "ShipmentReceived",
      "type": "event"
    },
    {
      "inputs": [
        {
          "internalType": "string",
          "name": "productId",
          "type": "string"
        }
      ],
      "name": "getProduct",
      "outputs": [
        {
          "components": [
            {
              "internalType": "string",
              "name": "productId",
              "type": "string"
            },
            {
              "internalType": "string",
              "name": "name",
              "type": "string"
            },
            {
              "internalType": "string",
              "name": "sku",
              "type": "string"
            },
            {
              "internalType": "string",
              "name": "batchNumber",
              "type": "string"
            },
            {
              "internalType": "string",
              "name": "category",
              "type": "string"
            },
            {
              "internalType": "uint256",
              "name": "quantity",
              "type": "uint256"
            },
            {
              "internalType": "uint256",
              "name": "expiryTimestamp",
              "type": "uint256"
            },
            {
              "internalType": "address",
              "name": "addedBy",
              "type": "address"
            },
            {
              "internalType": "string",
              "name": "addedByRole",
              "type": "string"
            },
            {
              "internalType": "uint256",
              "name": "timestamp",
              "type": "uint256"
            }
          ],
          "internalType": "struct MedXProductRegistry.Product",
          "name": "",
          "type": "tuple"
        }
      ],
      "stateMutability": "view",
      "type": "function"
    },
    {
      "inputs": [],
      "name": "getProductCount",
      "outputs": [
        {
          "internalType": "uint256",
          "name": "",
          "type": "uint256"
        }
      ],
      "stateMutability": "view",
      "type": "function"
    },
    {
      "inputs": [
        {
          "internalType": "string",
          "name": "shipmentId",
          "type": "string"
        }
      ],
      "name": "getShipmentEvents",
      "outputs": [
        {
          "components": [
            {
              "internalType": "string",
              "name": "eventType",
              "type": "string"
            },
            {
              "internalType": "string",
              "name": "shipmentId",
              "type": "string"
            },
            {
              "internalType": "string",
              "name": "fromEntity",
              "type": "string"
            },
            {
              "internalType": "string",
              "name": "toEntity",
              "type": "string"
            },
            {
              "internalType": "address",
              "name": "actor",
              "type": "address"
            },
            {
              "internalType": "string",
              "name": "actorRole",
              "type": "string"
            },
            {
              "internalType": "uint256",
              "name": "timestamp",
              "type": "uint256"
            }
          ],
          "internalType": "struct MedXProductRegistry.ShipmentEvent[]",
          "name": "",
          "type": "tuple[]"
        }
      ],
      "stateMutability": "view",
      "type": "function"
    },
    {
      "inputs": [
        {
          "internalType": "string",
          "name": "productId",
          "type": "string"
        }
      ],
      "name": "isRegistered",
      "outputs": [
        {
          "internalType": "bool",
          "name": "",
          "type": "bool"
        }
      ],
      "stateMutability": "view",
      "type": "function"
    },
    {
      "inputs": [
        {
          "internalType": "string",
          "name": "shipmentId",
          "type": "string"
        },
        {
          "internalType": "string",
          "name": "fromEntity",
          "type": "string"
        },
        {
          "internalType": "string",
          "name": "toEntity",
          "type": "string"
        },
        {
          "internalType": "string",
          "name": "actorRole",
          "type": "string"
        }
      ],
      "name": "recordDispatch",
      "outputs": [],
      "stateMutability": "nonpayable",
      "type": "function"
    },
    {
      "inputs": [
        {
          "internalType": "string",
          "name": "shipmentId",
          "type": "string"
        },
        {
          "internalType": "string",
          "name": "fromEntity",
          "type": "string"
        },
        {
          "internalType": "string",
          "name": "toEntity",
          "type": "string"
        },
        {
          "internalType": "string",
          "name": "actorRole",
          "type": "string"
        }
      ],
      "name": "recordReceive",
      "outputs": [],
      "stateMutability": "nonpayable",
      "type": "function"
    },
    {
      "inputs": [
        {
          "internalType": "string",
          "name": "productId",
          "type": "string"
        },
        {
          "internalType": "string",
          "name": "name",
          "type": "string"
        },
        {
          "internalType": "string",
          "name": "sku",
          "type": "string"
        },
        {
          "internalType": "string",
          "name": "batchNumber",
          "type": "string"
        },
        {
          "internalType": "string",
          "name": "category",
          "type": "string"
        },
        {
          "internalType": "uint256",
          "name": "quantity",
          "type": "uint256"
        },
        {
          "internalType": "uint256",
          "name": "expiryTimestamp",
          "type": "uint256"
        },
        {
          "internalType": "string",
          "name": "role",
          "type": "string"
        }
      ],
      "name": "registerProduct",
      "outputs": [],
      "stateMutability": "nonpayable",
      "type": "function"
    }
  ],
  "bytecode": "0x608080604052346100165761174d908161001c8239f35b600080fdfe608080604052600436101561001357600080fd5b60003560e01c90816332f197a514610dc6575080634a348da914610da857806368111cce14610b4a5780638621f22814610aba578063c822d7f014610a64578063d4e8e2151461098c5763e6572d621461006c57600080fd5b3461098757610100366003190112610987576004356001600160401b0381116109875761009d903690600401610fa9565b906024356001600160401b038111610987576100bd903690600401610fa9565b926044356001600160401b038111610987576100dd903690600401610fa9565b9290916064356001600160401b038111610987576100ff903690600401610fa9565b9190956084356001600160401b03811161098757610121903690600401610fa9565b939060e4356001600160401b03811161098757610142903690600401610fa9565b95909960ff6040518787823760208189810160018152030190205416610936576040519361016f856110b1565b61017a368888611109565b8552610187368e8b611109565b6020860152610197368c8c611109565b604086015236906101a792611109565b606084015236906101b792611109565b608082015260a43560a082015260c43560c08201523360e08201526101dd36858a611109565b610100820152426101208201526040518383823780848101600081520360200190209080518051906001600160401b03821161061e57819061022982610223875461114f565b87611189565b602090601f83116001146108ca576000926108bf575b50508160011b916000199060031b1c19161782555b60208101518051906001600160401b03821161061e5781906102868261027d600188015461114f565b60018801611189565b602090601f831160011461084d57600092610842575b50508160011b916000199060031b1c19161760018301555b60408101518051906001600160401b03821161061e5781906102e6826102dd600288015461114f565b60028801611189565b602090601f83116001146107d0576000926107c5575b50508160011b916000199060031b1c19161760028301555b60608101518051906001600160401b03821161061e5781906103468261033d600388015461114f565b60038801611189565b602090601f831160011461075357600092610748575b50508160011b916000199060031b1c19161760038301555b60808101518051906001600160401b03821161061e5781906103a68261039d600488015461114f565b60048801611189565b602090601f83116001146106d6576000926106cb575b50508160011b916000199060031b1c19161760048301555b60a0810151600583015560c081015160068301556007820160018060a01b0360e0830151166bffffffffffffffffffffffff60a01b8254161790556101008101518051906001600160401b03821161061e5761044082610437600887015461114f565b60088701611189565b602090601f8311600114610655579180600994926101209460009261064a575b50508160011b916000199060031b1c19161760088501555b0151910155604051828282376020818481016001815203019020600160ff19825416179055600254600160401b81101561061e5760018101806002558110156106345760026000527f405787fa12a823e0f2b7631cc41b3ba8828b3321ca811111fa75cd3aa3bb5ace016001600160401b03831161061e57610504836104fe835461114f565b83611189565b6000601f841160011461058d579183917f99b4a267c231524c781dcd6d8a4e87d344813cdc5b201b6479e28e9b223e0fee9897969461057d9694600091610582575b508360011b906000198560031b1c19161790555b81604051928392833781016000815203902096604051958695339a4295886111fe565b0390a3005b905082013538610546565b601f198416908260005260206000209160005b8181106106065750918593917f99b4a267c231524c781dcd6d8a4e87d344813cdc5b201b6479e28e9b223e0fee9a99989661057d989694106105ec575b5050600183811b01905561055a565b830135600019600386901b60f8161c1916905538806105dd565b919260206001819286890135815501940192016105a0565b634e487b7160e01b600052604160045260246000fd5b634e487b7160e01b600052603260045260246000fd5b015190503880610460565b906008850160005260206000209160005b601f19851681106106b3575092600994926001926101209583601f1981161061069a575b505050811b016008850155610478565b015160001960f88460031b161c1916905538808061068a565b91926020600181928685015181550194019201610666565b0151905038806103bc565b9250600485016000526020600020906000935b601f198416851061072d576001945083601f19811610610714575b505050811b0160048301556103d4565b015160001960f88460031b161c19169055388080610704565b818101518355602094850194600190930192909101906106e9565b01519050388061035c565b9250600385016000526020600020906000935b601f19841685106107aa576001945083601f19811610610791575b505050811b016003830155610374565b015160001960f88460031b161c19169055388080610781565b81810151835560209485019460019093019290910190610766565b0151905038806102fc565b9250600285016000526020600020906000935b601f1984168510610827576001945083601f1981161061080e575b505050811b016002830155610314565b015160001960f88460031b161c191690553880806107fe565b818101518355602094850194600190930192909101906107e3565b01519050388061029c565b9250600185016000526020600020906000935b601f19841685106108a4576001945083601f1981161061088b575b505050811b0160018301556102b4565b015160001960f88460031b161c1916905538808061087b565b81810151835560209485019460019093019290910190610860565b01519050388061023f565b9250846000526020600020906000935b601f198416851061091b576001945083601f19811610610902575b505050811b018255610254565b015160001960f88460031b161c191690553880806108f5565b818101518355602094850194600190930192909101906108da565b60405162461bcd60e51b815260206004820152602360248201527f50726f6475637420616c72656164792072656769737465726564206f6e2d636860448201526230b4b760e91b6064820152608490fd5b600080fd5b346109875761057d7fc801c4fa827eb2f345cb2650a992d8537e995883ae446c997ee43383120e47016109be36611016565b919590979661055a60409a959a96949651838382376020818581016003815203019020604051906109ee82611096565b6040516109fa816110cd565b600a815269191a5cdc185d18da195960b21b60208201528252610a1e368686611109565b6020830152610a2e368e89611109565b6040830152610a3e368b8b611109565b6060830152336080830152610a5436878e611109565b60a08301524260c0830152611241565b34610987576020366003190112610987576004356001600160401b0381116109875760ff6020610a9981933690600401610fa9565b91908260405193849283378101600181520301902054166040519015158152f35b346109875761057d7f555b672e7a6feb58c2cfcf23b0b7437b47b2c43ee27160179b601a5278a8f65a610aec36611016565b919590979661055a60409a959a9694965183838237602081858101600381520301902060405190610b1c82611096565b604051610b28816110cd565b60088152671c9958d95a5d995960c21b60208201528252610a1e368686611109565b34610987576020366003190112610987576004356001600160401b03811161098757610b7a903690600401610fa9565b906000610120604051610b8c816110b1565b606081526060602082015260606040820152606080820152606060808201528260a08201528260c08201528260e08201526060610100820152015260ff604051838382376020818581016001815203019020541615610d6f5760209082604051938492833781016000815203019020600960405191610c0a836110b1565b610c1381611671565b8352610c2160018201611671565b6020840152610c3260028201611671565b6040840152610c4360038201611671565b6060840152610c5460048201611671565b6080840152600581015460a0840152600681015460c084015260078101546001600160a01b031660e0840152610c8c60088201611671565b6101008401520154610120820152604051809160208252610120610d62610d25610d0f610cf9610ce3610ccd875161014060208b01526101608a0190610fd6565b6020880151898203601f190160408b0152610fd6565b6040870151888203601f190160608a0152610fd6565b6060860151878203601f19016080890152610fd6565b6080850151868203601f190160a0880152610fd6565b60a084015160c086015260c084015160e086015260018060a01b0360e085015116610100860152610100840151601f198683030184870152610fd6565b9101516101408301520390f35b60405162461bcd60e51b8152602060048201526011602482015270141c9bd91d58dd081b9bdd08199bdd5b99607a1b6044820152606490fd5b34610987576000366003190112610987576020600254604051908152f35b3461098757602080600319360112610987576001600160401b0360043581811161098757610df8903690600401610fa9565b8091853783019282816003958681520301902090815490811161061e579160405192600594610e2b8383881b01866110e8565b81855260009384528284208386019491855b848410610f1d575050505050604051928184019082855251809152604081818601961b85010192916000955b828710610e765785850386f35b909192938280600192603f19898203018552875190610f03610edf610ecc610eba610eaa865160e0875260e0870190610fd6565b8787015186820389880152610fd6565b60408601518582036040870152610fd6565b6060808601519085830390860152610fd6565b6080878060a01b0381860151169084015260a0808501519084830390850152610fd6565b9160c0809101519101529601920196019592919092610e69565b60078660019260409a989a51610f3281611096565b610f3b87611671565b8152610f48858801611671565b83820152610f5860028801611671565b6040820152610f68868801611671565b6060820152848060a01b036004880154166080820152610f898d8801611671565b60a0820152600687015460c0820152815201930193019291969496610e3d565b9181601f84011215610987578235916001600160401b038311610987576020838186019501011161098757565b919082519283825260005b848110611002575050826000602080949584010152601f8019910116010190565b602081830181015184830182015201610fe1565b6080600319820112610987576001600160401b0390600435828111610987578161104291600401610fa9565b93909392602435818111610987578361105d91600401610fa9565b93909392604435838111610987578261107891600401610fa9565b939093926064359182116109875761109291600401610fa9565b9091565b60e081019081106001600160401b0382111761061e57604052565b61014081019081106001600160401b0382111761061e57604052565b604081019081106001600160401b0382111761061e57604052565b90601f801991011681019081106001600160401b0382111761061e57604052565b9291926001600160401b03821161061e5760405191611132601f8201601f1916602001846110e8565b829481845281830111610987578281602093846000960137010152565b90600182811c9216801561117f575b602083101461116957565b634e487b7160e01b600052602260045260246000fd5b91607f169161115e565b90601f811161119757505050565b600091825260208220906020601f850160051c830194106111d3575b601f0160051c01915b8281106111c857505050565b8181556001016111bc565b90925082906111b3565b908060209392818452848401376000828201840152601f01601f1916010190565b979695919261123c9461122061122e936060989660808d5260808d01916111dd565b918a830360208c01526111dd565b9187830360408901526111dd565b930152565b805491600160401b83101561061e5760019283810180845581101561063457600092835260209060078285209102019382519081516001600160401b03928382116114a157819061129c826112968b5461114f565b8b611189565b8590601f8311600114611612578892611607575b5050600019600383901b1c191690821b1786555b8086018385015180519084821161151f5781906112eb826112e5865461114f565b86611189565b8690601f83116001146115a857899261159d575b5050600019600383901b1c191690831b1790555b60028601604085015180519084821161151f578190611336826112e5865461114f565b8690601f831160011461153e578992611533575b5050600019600383901b1c191690831b1790555b60038601606085015180519084821161151f578190611381826112e5865461114f565b8690601f83116001146114c05789926114b5575b5050600019600383901b1c191690831b1790555b6004860160018060a01b036080860151166bffffffffffffffffffffffff60a01b825416179055600586019260a085015180519384116114a1576113f184610223875461114f565b81601f85116001146114355750928092819260c09796956006999461142a575b50501b916000199060031b1c19161790555b0151910155565b015192503880611411565b858852808820969795969395601f198616915b82821061148a575050916006979593918560c098969410611471575b505050811b019055611423565b015160001960f88460031b161c19169055388080611464565b808886978294978701518155019601940190611448565b634e487b7160e01b87526041600452602487fd5b015190503880611395565b848a52878a208694509190601f1984168b5b8a82821061150957505084116114f0575b505050811b0190556113a9565b015160001960f88460031b161c191690553880806114e3565b83850151865589979095019493840193016114d2565b634e487b7160e01b88526041600452602488fd5b01519050388061134a565b848a52878a208694509190601f1984168b5b8a828210611587575050841161156e575b505050811b01905561135e565b015160001960f88460031b161c19169055388080611561565b8385015186558997909501949384019301611550565b0151905038806112ff565b848a52878a208694509190601f1984168b5b8a8282106115f157505084116115d8575b505050811b019055611313565b015160001960f88460031b161c191690553880806115cb565b83850151865589979095019493840193016115ba565b0151905038806112b0565b8989528689208594509190601f1984168a5b8982821061165b5750508411611642575b505050811b0186556112c4565b015160001960f88460031b161c19169055388080611635565b8385015186558897909501949384019301611624565b90604051918260008254926116858461114f565b9081845260019485811690816000146116f457506001146116b1575b50506116af925003836110e8565b565b9093915060005260209081600020936000915b8183106116dc5750506116af935082010138806116a1565b855488840185015294850194879450918301916116c4565b9150506116af94506020925060ff191682840152151560051b82010138806116a156fea2646970667358221220054de5abcb2cf846e8817bb1202589dcadc7b3673b3ee00ca7783b4e62b5644664736f6c63430008140033",
  "linkReferences": {},
  "deployedLinkReferences": {}
}